:020000040800F2
:1000000000000220B92B0008591B0008671B0008DC
:100010006D1B0008731B0008791B0008000000001E
:100020000000000000000000000000007F1B00082E
:100030008D1B0008000000009B1B0008A91B000886
:10004000092C0008092C0008092C0008092C0008BC
:10005000092C0008092C0008092C0008092C0008AC
:10006000092C0008092C0008092C0008092C00089C
:10007000092C0008B51B0008092C0008C91B000842
:10008000092C0008092C0008092C0008092C00087C
:10009000DD1B0008F11B0008092C0008092C0008D2
:1000A000092C0008092C0008092C0008092C00085C
:1000B000092C0008092C0008092C0008092C00084C
:1000C000092C0008092C0008092C0008092C00083C
:1000D000092C0008051C0008191C00082D1C00082C
:1000E000092C0008092C0008092C0008092C00081C
:1000F000092C0008092C0008092C0008092C00080C
:10010000092C0008092C0008092C0008092C0008FB
:10011000092C0008411C0008551C0008691C000837
:10012000092C0008092C0008092C0008092C0008DB
:10013000092C00080000000000000000092C000845
:100140007D1C0008911C0008092C0008092C0008DF
:10015000092C0008092C0008092C0008A51C00081F
:10016000092C0008092C0008092C0008092C00089B
:10017000092C0008092C0008000000000000000005
:08018000092C0008092C0008FD
:1001880010B5054C237833B9044B13B10448AFF3C9
:1001980000800123237010BDDC0100200000000056
:1001A8006C87000808B5034B1BB103490348AFF33C
:1001B800008008BD00000000E00100206C870008F6
:1001C800034613F8012B002AFBD1181A013870478F
:1001D80081F0004102E000BF83F0004330B54FEAF0
:1001E80041044FEA430594EA050F08BF90EA020F5D
:1001F8001FBF54EA000C55EA020C7FEA645C7FEAF0
:10020800655C00F0E2804FEA5454D4EB5555B8BF12
:100218006D420CDD2C4480EA020281EA030382EA83
:10022800000083EA010180EA020281EA0303362D15
:1002380088BF30BD11F0004F4FEA01314FF4801CE8
:100248004CEA113102D0404261EB410113F0004FFA
:100258004FEA03334CEA133302D0524263EB4303B1
:1002680094EA050F00F0A780A4F10104D5F1200E4F
:100278000DDB02FA0EFC22FA05F2801841F10001AA
:1002880003FA0EF2801843FA05F359410EE0A5F17E
:1002980020050EF1200E012A03FA0EFC28BF4CF0AF
:1002A800020C43FA05F3C01851EBE37101F0004565
:1002B80007D54FF0000EDCF1000C7EEB00006EEB72
:1002C8000101B1F5801F1BD3B1F5001F0CD34908FC
:1002D8005FEA30004FEA3C0C04F101044FEA445253
:1002E80012F5800F80F09A80BCF1004F08BF5FEADA
:1002F800500C50F1000041EB045141EA050130BDBA
:100308005FEA4C0C404141EB010111F4801FA4F15C
:100318000104E9D191F0000F04BF01460020B1FAB1
:1003280081F308BF2033A3F10B03B3F120020CDAE9
:100338000C3208DD02F1140CC2F10C0201FA0CF0C7
:1003480021FA02F10CE002F11402D8BFC2F1200C2C
:1003580001FA02F120FA0CFCDCBF41EA0C019040E2
:10036800E41AA2BF01EB0451294330BD6FEA04042B
:100378001F3C1CDA0C340EDC04F11404C4F1200216
:1003880020FA04F001FA02F340EA030021FA04F328
:1003980045EA030130BDC4F10C04C4F1200220FA7F
:1003A80002F001FA04F340EA0300294630BD21FABD
:1003B80004F0294630BD94F0000F83F4801306BF83
:1003C80081F480110134013D4EE77FEA645C18BF77
:1003D8007FEA655C29D094EA050F08BF90EA020F0E
:1003E80005D054EA000C04BF1946104630BD91EA06
:1003F800030F1EBF0021002030BD5FEA545C05D109
:100408004000494128BF41F0004130BD14F5800447
:100418003CBF01F5801130BD01F0004545F0FE41BB
:1004280041F470014FF0000030BD7FEA645C1ABFF0
:10043800194610467FEA655C1CBF0B46024650EA27
:10044800013406BF52EA033591EA030F41F4002153
:1004580030BD00BF90F0000F04BF0021704730B5D9
:100468004FF4806404F132044FF000054FF00001AE
:1004780050E700BF90F0000F04BF0021704730B56F
:100488004FF4806404F1320410F0004548BF404244
:100498004FF000013EE700BF42004FEAE2014FEA99
:1004A80031014FEA02701FBF12F07F4393F07F4F74
:1004B80081F06051704732F07F4208BF704793F077
:1004C8007F4F04BF41F40021704730B54FF460748A
:1004D80001F0004521F000411CE700BF50EA01028D
:1004E80008BF704730B54FF000050AE050EA010236
:1004F80008BF704730B511F0004502D5404261EBA6
:1005080041014FF4806404F132045FEA915C3FF4E6
:10051800D8AE4FF003025FEADC0C18BF03325FEA83
:10052800DC0C18BF033202EBDC02C2F1200300FA34
:1005380003FC20FA02F001FA03FE40EA0E0021FA59
:1005480002F11444BDE600BF70B54FF0FF0C4CF447
:10055800E06C1CEA11541DBF1CEA135594EA0C0FF9
:1005680095EA0C0F00F0DEF82C4481EA030621EA34
:100578004C5123EA4C5350EA013518BF52EA03356F
:1005880041F4801143F4801338D0A0FB02CE4FF021
:100598000005E1FB02E506F00042E0FB03E54FF051
:1005A8000006E1FB03569CF0000F18BF4EF0010E49
:1005B800A4F1FF04B6F5007F64F5407404D25FEA45
:1005C8004E0E6D4146EB060642EAC62141EA5551F8
:1005D8004FEAC52040EA5E504FEACE2EB4F1FD0C3A
:1005E80088BFBCF5E06F1ED8BEF1004F08BF5FEAB8
:1005F800500E50F1000041EB045170BD06F000466A
:1006080046EA010140EA020081EA0301B4EB5C0416
:10061800C2BFD4EB0C0541EA045170BD41F480110E
:100628004FF0000E013C00F3AB8014F1360FDEBF33
:10063800002001F0004170BDC4F10004203C35DA0F
:100648000C341BDC04F11404C4F1200500FA05F392
:1006580020FA04F001FA05F240EA020001F0004233
:1006680021F0004110EBD37021FA04F642EB0601A9
:100678005EEA430E08BF20EAD37070BDC4F10C04D3
:10068800C4F1200500FA04F320FA05F001FA04F297
:1006980040EA020001F0004110EBD37041F1000183
:1006A8005EEA430E08BF20EAD37070BDC4F120058E
:1006B80000FA05F24EEA020E20FA04F301FA05F2F6
:1006C80043EA020321FA04F001F0004121FA04F29E
:1006D80020EA020000EBD3705EEA430E08BF20EA6E
:1006E800D37070BD94F0000F0FD101F000464000A8
:1006F80041EB010111F4801F08BF013CF7D041EA2A
:10070800060195F0000F18BF704703F0004652002D
:1007180043EB030313F4801F08BF013DF7D043EAFE
:100728000603704794EA0C0F0CEA135518BF95EAB4
:100738000C0F0CD050EA410618BF52EA4306D1D13B
:1007480081EA030101F000414FF0000070BD50EA5A
:10075800410606BF1046194652EA430619D094EAE4
:100768000C0F02D150EA013613D195EA0C0F05D1CE
:1007780052EA03361CBF104619460AD181EA030122
:1007880001F0004141F0FE4141F470014FF00000DA
:1007980070BD41F0FE4141F4780170BD70B54FF075
:1007A800FF0C4CF4E06C1CEA11541DBF1CEA1355F5
:1007B80094EA0C0F95EA0C0F00F0A7F8A4EB0504D7
:1007C80081EA030E52EA03354FEA013100F08880CE
:1007D8004FEA03334FF0805545EA131343EA126397
:1007E8004FEA022245EA111545EA10654FEA00264C
:1007F8000EF000419D4208BF964244F1FD0404F505
:10080800407402D25B084FEA3202B61A65EB030560
:100818005B084FEA32024FF480104FF4002CB6EB1D
:10082800020E75EB030E22BFB61A754640EA0C009D
:100838005B084FEA3202B6EB020E75EB030E22BFDD
:10084800B61A754640EA5C005B084FEA3202B6EB1E
:10085800020E75EB030E22BFB61A754640EA9C00DD
:100868005B084FEA3202B6EB020E75EB030E22BFAD
:10087800B61A754640EADC0055EA060E18D04FEA6B
:10088800051545EA16754FEA06164FEAC30343EA0B
:1008980052734FEAC2025FEA1C1CC0D111F4801FD8
:1008A8000BD141EA00014FF000004FF0004CB6E7D1
:1008B80011F4801F04BF01430020B4F1FD0C88BF70
:1008C800BCF5E06F3FF6AFAEB5EB030C04BFB6EB7B
:1008D800020C5FEA500C50F1000041EB045170BD6E
:1008E8000EF0004E4EEA113114EB5C04C2BFD4EB9B
:1008F8000C0541EA045170BD41F480114FF0000E1F
:10090800013C90E645EA060E8DE60CEA135594EA9A
:100918000C0F08BF95EA0C0F3FF43BAF94EA0C0F9D
:100928000AD150EA01347FF434AF95EA0C0F7FF412
:1009380025AF104619462CE795EA0C0F06D152EA66
:1009480003353FF4FDAE1046194622E750EA41064A
:1009580018BF52EA43067FF4C5AE50EA41047FF45B
:100968000DAF52EA43057FF4EBAE12E74FF0FF3CC0
:1009780006E000BF4FF0010C02E000BF4FF0010C91
:100988004DF804CD4FEA410C7FEA6C5C4FEA430C0A
:1009980018BF7FEA6C5C1BD001B050EA410C0CBF59
:1009A80052EA430C91EA030F02BF90EA020F0020BB
:1009B800704710F1000F91EA030F58BF994208BF22
:1009C80090422CBFD8176FEAE37040F001007047DF
:1009D8004FEA410C7FEA6C5C02D150EA013C07D136
:1009E8004FEA430C7FEA6C5CD6D152EA033CD3D081
:1009F8005DF8040B704700BF8446104662468C467B
:100A08001946634600E000BF01B5FFF7B7FF0028AD
:100A180048BF10F1000F01BD4DF808EDFFF7F4FFD6
:100A28000CBF012000205DF808FB00BF4DF808ED61
:100A3800FFF7EAFF34BF012000205DF808FB00BF84
:100A48004DF808EDFFF7E0FF94BF012000205DF8A6
:100A580008FB00BF4DF808EDFFF7CEFF94BF01205B
:100A680000205DF808FB00BF4DF808EDFFF7C4FF54
:100A780034BF012000205DF808FB00BF4FEA410C9D
:100A88007FEA6C5C02D150EA013C0AD14FEA430C80
:100A98007FEA6C5C02D152EA033C02D14FF00000BD
:100AA80070474FF0010070474FEA410212F50012FB
:100AB80015D211D56FF47873B3EB625212D94FEA9D
:100AC800C12343F0004343EA505311F0004F23FA87
:100AD80002F018BF404270474FF00000704750EADC
:100AE800013005D111F0004008BF6FF00040704799
:100AF8004FF00000704700BF53B94AB9002908BF3A
:100B080000281CBF4FF0FF314FF0FF3000F072B9E2
:100B1800ADF1080C6DE904CE00F006F8DDF804E04C
:100B2800DDE9022304B070472DE9F047089E04462A
:100B38008846002B4BD18A42154667D9B2FA82F211
:100B48004AB1C2F1200701FA02F320FA07F79540EB
:100B580047EA030894404FEA154E230CB8FBFEF70A
:100B68001FFA85FC0EFB178843EA084307FB0CF1C4
:100B7800994209D9EB1807F1FF3080F01B8199429F
:100B880040F21881023F2B445B1AA4B2B3FBFEF07B
:100B98000EFB103344EA034400FB0CFCA44509D9BE
:100BA8002C1900F1FF3380F00781A44540F204813D
:100BB80002382C4440EA0740A4EB0C0400271EB17D
:100BC800D4400023C6E900433946BDE8F0878B428C
:100BD80009D9002E00F0EB800027C6E9000138464D
:100BE8003946BDE8F087B3FA83F7002F47D18B4227
:100BF80002D3824200F2FA80841A61EB03030120D7
:100C08009846002EE0D0C6E90048DDE702B9FFDECD
:100C1800B2FA82F2002A40F08F80491B4FEA154E43
:100C28001FFA85F80127B1FBFEFC230C0EFB1C11F3
:100C380043EA014308FB0CF1994207D9EB180CF180
:100C4800FF3002D2994200F2CD808446591AA3B2ED
:100C5800B1FBFEF00EFB101443EA044408FB00F855
:100C6800A04507D92C1900F1FF3302D2A04500F2A4
:100C7800B6801846A4EB080440EA0C409FE7C7F189
:100C8800200CBB4022FA0CFE4EEA030E01FA07F4D0
:100C980020FA0CF521FA0CF34FEA1E482543B3FB62
:100CA800F8F92C0C08FB19331FFA8EFA44EA0343AF
:100CB80009FB0AF49C4202FA07F200FA07F10BD981
:100CC8001EEB030309F1FF3080F087809C4240F25D
:100CD8008480A9F1020973441B1BADB2B3FBF8F081
:100CE80008FB103345EA034400FB0AFAA24508D979
:100CF8001EEB040400F1FF336BD2A24569D9023818
:100D0800744440EA0940A0FB0289A4EB0A044C455C
:100D1800C2464B4654D351D0002E69D0B1EB0A05D8
:100D280064EB030404FA0CFCFD40FC404CEA0505A6
:100D3800C6E90054002747E7C2F1200320FA03F769
:100D4800954001FA02F021FA03F34FEA154E3843B1
:100D5800010CB3FBFEF71FFA85F80EFB173341EAC7
:100D6800034107FB08F38B4204FA02F407D9691818
:100D780007F1FF3C2FD28B422DD9023F2944CB1AD1
:100D880081B2B3FBFEF00EFB103341EA034100FBD6
:100D980008F38B4207D9691800F1FF3C17D28B4240
:100DA80015D902382944C91A40EA07473BE73746AC
:100DB800304609E70746E7E61846FBE64145ABD269
:100DC800B8EB020A69EB0E0201381346A4E7604645
:100DD800E9E7184695E76746D1E781467CE7023898
:100DE8002C4447E7ACF1020C2B442FE7384608E7C0
:100DF8003746E9E6704700BF80B500AF174B184A81
:100E08001A60164B07225A60144B00229A60134B43
:100E18000022DA60114B4FF480321A610F4B4FF405
:100E280000125A610D4B00221A760C4B01225A7699
:100E38000A4B00229A76094B0022DA76074B0022E9
:100E48001A77064B01225A77044801F06FFF0346D0
:100E5800002B01D000F0D8FC00BF80BD4C02002060
:100E68000064004080B500AF174B184A1A60164B53
:100E780007225A60144B00229A60134B0022DA6052
:100E8800114B4FF480321A610F4B4FF400125A6124
:100E98000D4B00221A760C4B01225A760A4B00227F
:100EA8009A76094B0022DA76074B00221A77064B0E
:100EB80001225A77044801F039FF0346002B01D07C
:100EC80000F0A2FC00BF80BD2402002000680040A2
:100ED80080B58CB000AF786007F11C0300221A605F
:100EE8005A609A60DA601A617B681B68534A9342B9
:100EF80046D1534B1B680133514A1360504B1B6852
:100F0800012B0DD10023BB614E4B1B6C4D4A43F0A6
:100F1800007313644B4B1B6C03F00073BB61BB691C
:100F280000237B61474B1B6B464A43F00103136365
:100F3800444B1B6B03F001037B617B694FF4C05387
:100F4800FB6102233B6200237B620323BB6209230C
:100F5800FB6207F11C0319463B4803F05FF90022C6
:100F68000221142002F019FE142002F032FE0022A1
:100F78000221152002F011FE152002F02AFE58E089
:100F88007B681B68314A934253D100233B612D4B48
:100F98001B6C2C4A43F0806313642A4B1B6C03F0D0
:100FA80080633B613B69264B1B680133244A13600D
:100FB800234B1B68012B0DD10023FB60214B1B6CBD
:100FC800204A43F0007313641E4B1B6C03F000733C
:100FD800FB60FB680023BB601A4B1B6B194A43F08C
:100FE80002031363174B1B6B03F00203BB60BB6860
:100FF8004FF44053FB6102233B6200237B620323CF
:10100800BB620923FB6207F11C031946104803F071
:1010180005F900220221402002F0BFFD402002F025
:10102800D8FD00220221412002F0B7FD412002F044
:10103800D0FD00BF3037BD4680BD00BF0064004012
:10104800F80100200038024000000240006800401B
:101058000004024080B582B000AF00237B60104BD3
:101068001B6B0F4A43F4001313630D4B1B6B03F404
:1010780000137B607B68002200210D2002F08DFDAB
:101088000D2002F0A6FD002200210F2002F085FDB0
:101098000F2002F09EFD00BF0837BD4680BD00BF8F
:1010A8000038024080B58AB000AF07F1140300226F
:1010B8001A605A609A60DA601A6100233B61574BE4
:1010C8001B6B564A43F004031363544B1B6B03F02A
:1010D80004033B613B690023FB60504B1B6B4F4A89
:1010E80043F0800313634D4B1B6B03F08003FB60DD
:1010F800FB680023BB60494B1B6B484A43F0010364
:101108001363464B1B6B03F00103BB60BB680023F2
:101118007B60424B1B6B414A43F0020313633F4B16
:101128001B6B03F002037B607B6800233B603B4B37
:101138001B6B3A4A43F008031363384B1B6B03F0ED
:1011480008033B603B6800224EF61341344803F025
:10115800FFF900224FF40071324803F0F9F9002238
:101168004FF40071304803F0F3F94EF611437B61F8
:101178000123BB610023FB6100233B6207F11403D9
:101188001946274803F04AF802237B610123BB6113
:101198000223FB6100233B6207F114031946204830
:1011A80003F03CF848F210437B610023BB61012344
:1011B800FB6107F1140319461A4803F02FF84FF49E
:1011C80000737B610123BB610023FB6100233B6249
:1011D80007F114031946134803F020F84FF48073FD
:1011E8007B610023BB610123FB6107F114031946EE
:1011F8000D4803F013F84FF400737B610123BB61C2
:101208000023FB6100233B6207F1140319460648DB
:1012180003F004F800BF2837BD4680BD00380240FF
:1012280000080240000002400004024080B582B07D
:1012380000AF78607B681A680D4B1B689A4205D12D
:101248000C4B1B780133DAB20A4B1A70094B1B7826
:10125800002B09D14FF40051074803F092F94FF4DD
:101268008041054803F08DF900BF0837BD4680BDB1
:10127800D4030020120200200008024080B582B08A
:1012880000AF7860454B1B8801339AB2434B1A80F4
:101298007B681A68424B1B689A420BD1414B1B88EA
:1012A80001339AB23F4B1A8002223F493C4804F06E
:1012B800B9FE58E07B681A683C4B1B689A420BD110
:1012C8003B4B1B8801339AB2394B1A8002223649AC
:1012D800364804F0A7FE46E07B681A68354B1B6861
:1012E8009A420BD1344B1B8801339AB2324B1A8085
:1012F80002222D492F4804F095FE34E07B681A68D5
:101308002E4B1B689A420BD12D4B1B8801339AB286
:101318002B4B1A8002222449284804F083FE22E03D
:101328007B681A68274B1B689A420BD1264B1B888F
:1013380001339AB2244B1A8002221B49214804F037
:1013480071FE10E07B681A68204B1B689A420AD12C
:101358001F4B1B8801339AB21D4B1A800222124977
:101368001A4804F05FFE0D4B1A881A4BA3FB0213B0
:1013780099080B469B000B44D31A9BB2002B08D14B
:101388004FF40061144803F0FCF80221124803F0FE
:10139800F8F800BF0837BD4680BD00BF0E02002028
:1013A800F40500200202002098020020B406002064
:1013B80004020020740500200602002074060020A4
:1013C80008020020B40500200A020020340600208C
:1013D8000C020020CDCCCCCC0008024080B483B0F5
:1013E80000AF786000BF0C37BD465DF8047B7047DE
:1013F80080B582B000AF78607B681A68204B1B68A4
:101408009A4217D11F4B1B8801339AB21D4B1A8081
:101418001D4B1E4A0021786801F083FF1B4B1B6897
:1014280040F2FF12934205D1194B1B8801339AB23F
:10143800174B1A807B681A68164B1B689A4205D1AD
:10144800154B1B8801339AB2134B1A80104B1A881C
:10145800124BA3FB021399080B469B000B44D31AAB
:101468009BB2002B08D101210D4803F08AF84FF4F4
:1014780000710C4803F085F800BF0837BD4680BDF1
:1014880024020020FE0100209002002074020020A7
:10149800000200204C020020FC010020CDCCCCCC66
:1014A800000802400004024080B58AB000AF002363
:1014B8007B610023BB610123FB6100233B600023A8
:1014C8007B600023BB600023FB6000233B6101239A
:1014D8003B6200237B623B461946084801F022FD27
:1014E80000237B6200237B613B461946044801F0D8
:1014F80019FD00BF2837BD4680BD00BF4C02002043
:101508002402002080B588B000AF40F2FF137B6052
:1015180000233B610023FB6008237B610023FB77EA
:1015280008E0FB7FFA7F5200D1B2094AD154FB7F11
:101538000133FB77FB7F072BF3D93B46391D044A60
:10154800044801F013FE00BF2037BD4680BD00BF30
:101558009C0200204C02002080B500AF01F052FB35
:1015680000F0E8F8FFF79EFDFFF774FDFFF744FC75
:10157800FFF778FC00F0DEFB00F07CFC00F0C6FC16
:1015880000F046FD00F0B0FD00F030FE01F00CF870
:1015980001F034F801F05CF801F084F801F0ACF8DF
:1015A80001F0D4F800F0F8F900F068FD00F0BEF999
:1015B80001224FF48061514802F0CAFF01224FF422
:1015C80000414E4802F0C4FFFFF76EFF642001F0AF
:1015D8008BFB01224FF48041484802F0B9FF0122F9
:1015E8004FF40051454802F0B3FF454801F07AFD39
:1015F800444801F077FD0221414801F0A4FF02218F
:10160800404801F0A0FF642001F06EFB01224FF476
:1016180000713D4802F09CFF01220121374802F089
:1016280097FF3A4803F093FC642001F05DFB012228
:101638000221324802F08CFF01224FF400612F484A
:1016480002F086FF02223249324804F0EBFC022203
:101658002F49314804F0E6FC02222D492F4804F0B6
:10166800E1FC02222A492E4804F0DCFC0222284927
:101678002C4804F0D7FC022225492B4804F0D2FC60
:1016880000F0C9F8294B1B8801339AB2274B1A80FE
:101698000123022226491F4804F02BFC01230222C1
:1016A80023491D4804F025FC0123022220491B4838
:1016B80004F01FFC012302221D49194804F019FCFB
:1016C800012302221A49174804F013FC01230222BD
:1016D8001749154804F00DFCFFF714FF4FF40041BB
:1016E800064802F04EFF4FF48061044802F049FFBB
:1016F8004FF4FA7001F0F8FAC4E700BF000802409E
:101708004C0200202402002000040240D4030020E0
:1017180098020020F4050020B4060020740500207B
:1017280074060020B40500203406002014020020AE
:101738001002002080B594B000AF07F120033022DA
:101748000021184605F0E0FA07F10C0300221A60A0
:101758005A609A60DA601A610023BB60284B1B6CE0
:10176800274A43F080531364254B1B6C03F08053C6
:10177800BB60BB6800237B60224B1B68214A43F493
:10178800804313601F4B1B6803F480437B607B68B6
:1017980002233B620123FB6210233B630223BB63EA
:1017A8000023FB6308233B64A8237B640223BB64F8
:1017B8000423FB6407F12003184602F0FDFE0346EC
:1017C800002B01D000F020F80F23FB6002233B61BF
:1017D80000237B614FF4A053BB614FF4A053FB611E
:1017E80007F10C030521184603F056F90346002BB0
:1017F80001D000F009F800BF5037BD4680BD00BFDA
:10180800003802400070004080B400AF00BFBD4601
:101818005DF8047B704780B500AF64214FF4C46065
:1018280000F026F8642140F62D0000F021F864212C
:1018380040F62D1000F01CF8642140F64D2000F011
:1018480017F8642140F62D1000F012F8322001F04C
:101858004BFA322140F62D0000F00AF8322001F050
:1018680043FAC82140F62D0000F002F800BF80BD01
:1018780080B58AB000AF78603960284B284A1A6072
:10188800264B40F247325A60244B00229A60254A80
:101898007B68B2FBF3F3214AD360204B00221A6124
:1018A8001E4B00225A611D4B00229A616023FB6087
:1018B8001D4A7B68B2FBF3F33B6100237B61002385
:1018C800FB61164803F067FB0346002B01D0FFF7C6
:1018D8009BFF07F10C0308221946104803F024FD6A
:1018E8000346002B01D0FFF78FFF08210B4803F0B8
:1018F8007DFB0346002B01D0FFF786FF386801F017
:10190800F3F90821054803F0AFFB0346002B01D08B
:10191800FFF77AFF00BF2837BD4680BD940300203B
:1019280000040040A08601001873010080B500AFD4
:10193800174B184A1A60164B4FF482725A60144BB0
:1019480000229A60124B0022DA60114B02221A61BF
:101958000F4B01225A610E4B4FF400729A610C4BE7
:101968002022DA610A4B00221A62094B00225A62CD
:10197800074B00229A62064B0A22DA62044803F0F7
:1019880057FA0346002B01D0FFF73EFF00BF80BD8A
:10199800FC0200200030014080B500AF174B184A08
:1019A8001A60164B4FF482725A60144B00229A60E8
:1019B800124B0022DA60114B00221A610F4B0022F1
:1019C8005A610E4B4FF400729A610C4B1822DA617F
:1019D8000A4B00221A62094B00225A62074B002266
:1019E8009A62064B0A22DA62044803F021FA034697
:1019F800002B01D0FFF708FF00BF80BDA402002024
:101A0800003C004080B58CB000AF786007F11C0343
:101A180000221A605A609A60DA601A617B681B6853
:101A2800324A93422CD10023BB61314B5B6C304A64
:101A380043F4805353642E4B5B6C03F48053BB61B7
:101A4800BB6900237B612A4B1B6B294A43F00103C6
:101A58001363274B1B6B03F001037B617B69E02356
:101A6800FB6102233B6200237B620323BB620523E5
:101A7800FB6207F11C0319461E4802F0CFFB30E059
:101A88007B681B681C4A93422BD100233B61184B8F
:101A98001B6C174A43F400431364154B1B6C03F487
:101AA80000433B613B690023FB60114B1B6B104AF1
:101AB80043F0020313630E4B1B6B03F00203FB603E
:101AC800FB683823FB6102233B6200237B6203230C
:101AD800BB620623FB6207F11C031946074802F0A4
:101AE8009DFB00BF3037BD4680BD00BF00300140C0
:101AF8000038024000000240003C00400004024060
:101B080080B483B000AF00237B60104B5B6C0F4A3E
:101B180043F4804353640D4B5B6C03F480437B6058
:101B28007B6800233B60094B1B6C084A43F08053D9
:101B38001364064B1B6C03F080533B603B6800BF8B
:101B48000C37BD465DF8047B704700BF0038024083
:101B580080B400AF00BFBD465DF8047B704780B419
:101B680000AFFEE780B400AFFEE780B400AFFEE749
:101B780080B400AFFEE780B400AF00BFBD465DF89B
:101B8800047B704780B400AF00BFBD465DF8047B9E
:101B9800704780B400AF00BFBD465DF8047B704756
:101BA80080B500AF01F080F800BF80BD80B500AF00
:101BB800024802F0F9F800BF80BD00BF14050020FC
:101BC80080B500AF024802F0EFF800BF80BD00BF4B
:101BD800F406002080B500AF024801F0DAFC00BF2F
:101BE80080BD00BF4C02002080B500AF024801F064
:101BF800D0FC00BF80BD00BF4C02002080B500AF04
:101C0800024804F065FA00BF80BD00BFF40500205B
:101C180080B500AF024804F05BFA00BF80BD00BF8A
:101C2800B406002080B500AF024804F051FA00BFA6
:101C380080BD00BF7405002080B500AF024804F0E5
:101C480047FA00BF80BD00BFB405002080B500AFD3
:101C5800024803F061FA00BF80BD00BFD403002032
:101C680080B500AF024803F057FA00BF80BD00BF3F
:101C7800D404002080B500AF024801F08AFC00BF00
:101C880080BD00BF2402002080B500AF024801F0EB
:101C980080FC00BF80BD00BF2402002080B500AFDB
:101CA800024804F015FA00BF80BD00BF34060020CA
:101CB80080B584B000AF7860114B1B68002B02D14F
:101CC8000F4B104A1A600E4B1B68FB600C4B1A68CE
:101CD8007B6813446A46934207D904F0EBFF024637
:101CE8000C2313604FF0FF3306E0054B1A687B683E
:101CF8001344034A1360FB6818461037BD4680BD7D
:101D0800180200206007002080B400AF084BD3F809
:101D18008830074A43F47003C2F88830044B4FF008
:101D280000629A6000BFBD465DF8047B704700BF43
:101D380000ED00E080B596B000AF07F1480300223F
:101D48001A605A609A60DA6007F1400300221A604C
:101D58005A6007F1240300221A605A609A60DA6018
:101D68001A615A619A613B1D20220021184604F02D
:101D7800CBFF3E4B3E4A1A603C4BA7225A603B4B76
:101D880000229A60394B4FF47A72DA60374B00229E
:101D98001A61364B00225A61344B00229A6133484B
:101DA80003F0AAF80346002B01D0FFF72DFD4FF4EE
:101DB8008053BB6407F1480319462C4803F07AFBAB
:101DC8000346002B01D0FFF71FFD284803F0E3F876
:101DD8000346002B01D0FFF717FD00233B640023C7
:101DE8007B6407F140031946204803F053FF03467C
:101DF800002B01D0FFF708FD60237B620023BB6244
:101E08000023FB6200233B6300237B630023BB6347
:101E18000023FB6307F1240300221946134803F04B
:101E280083FA0346002B01D0FFF7EEFC00237B600A
:101E38000023BB600023FB6000233B6100237B6120
:101E48004FF40053BB6100233B623B1D1946074812
:101E580003F09CFF0346002B01D0FFF7D5FC034895
:101E680000F0F0FA00BF5837BD4680BD14040020CA
:101E78000000014080B586B000AF07F108030022DA
:101E88001A605A609A60DA603B4600221A605A600B
:101E98001D4B4FF080421A601B4B53225A601A4B5D
:101EA80000229A60184B4FF47A72DA60164B0022BF
:101EB8001A61154B00229A61134803F01DF8034676
:101EC800002B01D0FFF7A0FC4FF48053BB6007F153
:101ED800080319460C4803F0EDFA0346002B01D01D
:101EE800FFF792FC00233B6000237B603B461946CA
:101EF800054803F0CFFE0346002B01D0FFF784FC12
:101F080000BF1837BD4680BD5404002080B58EB090
:101F180000AF07F1280300221A605A609A60DA605D
:101F280007F1200300221A605A603B1D00221A6044
:101F38005A609A60DA601A615A619A61324B334A80
:101F48001A60314B53225A602F4B00229A602E4B55
:101F58004FF47A72DA602C4B00221A612A4B002265
:101F68009A61294802F0C8FF0346002B01D0FFF709
:101F78004BFC4FF48053BB6207F1280319462248F3
:101F880003F098FA0346002B01D0FFF73DFC1E48EA
:101F980003F001F80346002B01D0FFF735FC0023BE
:101FA8003B6200237B6207F120031946164803F0C1
:101FB80071FE0346002B01D0FFF726FC60237B60EF
:101FC8000023BB600023FB6000237B613B1D0822CC
:101FD80019460D4803F0A8F90346002B01D0FFF776
:101FE80013FC3B1D0C221946074803F09DF90346D4
:101FF800002B01D0FFF708FC034800F023FA00BFCC
:102008003837BD4680BD00BF94030020000400405F
:1020180080B582B000AF3B4600221A605A60154B6B
:10202800154A1A60134B40F247325A60114B00228E
:102038009A60104B4FF47A72DA600E4B00229A6164
:102048000C4802F059FF0346002B01D0FFF7DCFBD8
:1020580000233B6000237B603B461946054803F09C
:1020680019FE0346002B01D0FFF7CEFB00BF08374F
:10207800BD4680BDD40300200010004080B582B06A
:1020880000AF3B4600221A605A60154B154A1A6089
:10209800134B53225A60124B00229A60104B4FF494
:1020A8007A72DA600E4B00229A610D4802F024FF22
:1020B8000346002B01D0FFF7A7FB00233B6000235A
:1020C8007B603B461946064803F0E4FD0346002BB7
:1020D80001D0FFF799FB00BF0837BD4680BD00BFA0
:1020E800D40400200014004080B592B000AF07F17E
:1020F800400300221A605A6007F1240300221A6084
:102108005A609A60DA601A615A619A613B1D20220E
:102118000021184604F0F8FD324B334A1A60314B5F
:10212800A7225A602F4B00229A602E4B4FF47A72E6
:10213800DA602C4B00221A612A4B00225A61294B83
:1021480000229A61274802F026FF0346002B01D09F
:10215800FFF75AFB00233B6400237B6407F140032D
:102168001946204803F096FD0346002B01D0FFF7DF
:102178004BFB60237B620023BB620023FB620023CE
:102188007B630023BB630023FB6307F124030C225A
:102198001946144803F0C8F80346002B01D0FFF78E
:1021A80033FB00237B600023BB600023FB6000231C
:1021B8003B6100237B614FF40053BB6100233B620A
:1021C8003B1D1946074803F0E1FD0346002B01D0EB
:1021D800FFF71AFB034800F035F900BF4837BD4642
:1021E80080BD00BF540300200004014080B58CB0BE
:1021F80000AF07F1200300221A605A609A60DA6083
:102208003B1D00221A605A609A60DA601A615A61AE
:102218009A612B4B2B4A1A60294B00225A60284B93
:1022280000229A60264B4FF6FF72DA60244B002298
:102238001A61234B00229A61214802F05DFE034691
:10224800002B01D0FFF7E0FA4FF480533B6207F10F
:10225800200319461A4803F02DF90346002B01D034
:10226800FFF7D2FA164802F096FE0346002B01D07B
:10227800FFF7CAFA60237B600023BB600023FB6082
:1022880000237B613B1D002219460D4803F04CF8E2
:102298000346002B01D0FFF7B7FA3B1D042219466D
:1022A800074803F041F80346002B01D0FFF7ACFACA
:1022B800034800F0C7F800BF3037BD4680BD00BFF7
:1022C800940400200018004080B588B000AF786002
:1022D8007B681B68444A93420ED10023FB61434B41
:1022E8005B6C424A43F001035364404B5B6C03F060
:1022F8000103FB61FB6972E07B681B68B3F1804FE7
:102308000ED10023BB61394B1B6C384A43F00103E3
:102318001364364B1B6C03F00103BB61BB695EE0C1
:102328007B681B68324A93420ED100237B612F4B96
:102338001B6C2E4A43F0020313642C4B1B6C03F0F6
:1023480002037B617B694AE07B681B68294A9342E8
:1023580016D100233B61254B1B6C244A43F0100324
:102368001364224B1B6C03F010033B613B69002292
:102378000121362001F011FC362001F02AFC2EE064
:102388007B681B681C4A934216D10023FB60174BDD
:102398001B6C164A43F020031364144B1B6C03F0A8
:1023A8002003FB60FB6800220021372001F0F5FBC9
:1023B800372001F00EFC12E07B681B680F4A93423D
:1023C8000DD10023BB60094B1B6C084A43F0400346
:1023D8001364064B1B6C03F04003BB60BB6800BF73
:1023E8002037BD4680BD00BF0000014000380240D4
:1023F8000004004000100040001400400018004095
:1024080080B485B000AF78607B681B680B4A934244
:102418000DD10023FB600A4B5B6C094A43F00203B1
:102428005364074B5B6C03F00203FB60FB6800BF5F
:102438001437BD465DF8047B704700BF00040140B7
:102448000038024080B58CB000AF786007F11C03FB
:1024580000221A605A609A60DA601A617B681B6809
:10246800494A93421FD10023BB61484B1B6B474A23
:1024780043F001031363454B1B6B03F00103BB617E
:10248800BB694FF48073FB6102233B6200237B62CC
:102498000023BB620123FB6207F11C0319463C4879
:1024A80001F0BCFE6CE07B681B683A4A93421ED17F
:1024B80000237B61354B1B6B344A43F002031363E3
:1024C800324B1B6B03F002037B617B690323FB61C7
:1024D80002233B6200237B620023BB620223FB6270
:1024E80007F11C0319462C4801F098FE48E07B6868
:1024F8001B682A4A93421FD100233B61234B1B6B65
:10250800224A43F004031363204B1B6B03F00403BC
:102518003B613B694FF40073FB6102233B6200237C
:102528007B620023BB620323FB6207F11C0319468D
:102538001B4801F073FE23E07B681B68194A93422D
:102548001ED10023FB60114B1B6B104A43F00203A2
:1025580013630E4B1B6B03F00203FB60FB684FF425
:102568004043FB6102233B6200237B620023BB6282
:102578000923FB6207F11C031946074801F04EFEC8
:1025880000BF3037BD4680BD000001400038024022
:102598000000024000040040000402400004014022
:1025A800000802400018004080B500AF114B124AE5
:1025B8001A60104B4FF4E1325A600E4B00229A60B9
:1025C8000C4B0022DA600B4B00221A61094B0C22DB
:1025D8005A61084B00229A61064B0022DA610548CD
:1025E80003F03AFC0346002B01D0FFF70DF900BFBA
:1025F80080BD00BF74060020004C004080B500AFCD
:10260800114B124A1A60104B4FF4E1325A600E4BCC
:1026180000229A600C4B0022DA600B4B00221A61F0
:10262800094B0C225A61084B00229A61064B002282
:10263800DA61054803F010FC0346002B01D0FFF7D0
:10264800E3F800BF80BD00BFB40500200050004083
:1026580080B500AF114B124A1A60104B4FF4E132AB
:102668005A600E4B00229A600C4B0022DA600B4B2A
:1026780000221A61094B0C225A61084B00229A6108
:10268800064B0022DA61054803F0E6FB0346002BFF
:1026980001D0FFF7B9F800BF80BD00BFF4050020E6
:1026A8000010014080B500AF114B124A1A60104B60
:1026B8004FF4E1325A600E4B00229A600C4B002214
:1026C800DA600B4B00221A61094B0C225A61084B45
:1026D80000229A61064B0022DA61054803F0BCFB30
:1026E8000346002B01D0FFF78FF800BF80BD00BF65
:1026F800B40600200044004080B500AF114B124AD8
:102708001A60104B4FF4E1325A600E4B00229A6067
:102718000C4B0022DA600B4B00221A61094B0C2289
:102728005A61084B00229A61064B0022DA6105487B
:1027380003F092FB0346002B01D0FFF765F800BFBA
:1027480080BD00BF740500200048004080B500AF80
:10275800114B124A1A60104B4FF4E1325A600E4B7B
:1027680000229A600C4B0022DA600B4B00221A619F
:10277800094B0C225A61084B00229A61064B002231
:10278800DA61054803F068FB0346002B01D0FFF728
:102798003BF800BF80BD00BF340600200014014094
:1027A80080B594B000AF786007F13C0300221A604E
:1027B8005A609A60DA601A617B681B68904A934293
:1027C80040F08B800023BB638E4B1B6C8D4A43F417
:1027D800002313648B4B1B6C03F40023BB63BB6B9C
:1027E80000237B63874B1B6B864A43F0010313630B
:1027F800844B1B6B03F001037B637B6B0323FB633D
:1028080002233B6401237B640323BB640823FB642A
:1028180007F13C0319467C4801F000FD7B4B7C4ADC
:102828001A607A4B4FF000625A60784B00229A6027
:10283800764B0022DA60754B4FF480621A61734B55
:1028480000225A61714B00229A61704B4FF48072DA
:10285800DA616E4B4FF440321A626C4B00225A62B6
:102868006A4801F0D1F90346002B01D0FEF7CCFFEE
:102878007B68664A5A63654A7B689363654B664A18
:102888001A60644B4FF000625A60624B40229A60B3
:10289800604B0022DA605F4B4FF480621A615D4B37
:1028A80000225A615B4B00229A615A4B0022DA617E
:1028B800584B00221A62574B00225A62554801F0C1
:1028C800A3F90346002B01D0FEF79EFF7B68514A0F
:1028D8001A63504A7B68936358E17B681B684F4AC8
:1028E800934253D100233B63464B1B6C454A43F448
:1028F80080131364434B1B6C03F480133B633B6BE3
:102908000023FB623F4B1B6B3E4A43F004031363F7
:102918003C4B1B6B03F00403FB62FB6A0023BB62A6
:10292800384B1B6B374A43F008031363354B1B6B5B
:1029380003F00803BB62BB6A4FF48053FB630223B6
:102948003B6401237B640323BB640823FB6407F116
:102958003C031946324801F061FC0423FB6302235F
:102968003B6401237B640323BB640823FB6407F1F6
:102978003C0319462B4801F051FC00220021352068
:1029880001F00BF9352001F024F9FFE07B681B68A2
:10299800254A93424CD100237B621A4B5B6C194A3F
:1029A80043F010035364174B5B6C03F010037B6216
:1029B8007B6A00233B62134B1B6B124A43F00203F2
:1029C8001363104B1B6B03F002033B623B6AC0238B
:1029D800FB6302233B6400237B640323BB6407235C
:1029E800FB6407F13C031946104801F017FC00226C
:1029F8000021252001F0D1F8252001F0EAF8C5E0F2
:102A0800004C00400038024000000240140500203D
:102A180040600240F4060020706002400050004010
:102A280000080240000C024000100140000402406F
:102A38007B681B68574A934234D10023FB61564B8D
:102A48001B6C554A43F400331364534B1B6C03F45B
:102A58000033FB61FB690023BB614F4B1B6B4E4A84
:102A680043F0010313634C4B1B6B03F00103BB6181
:102A7800BB690C23FB6302233B6400237B640323B1
:102A8800BB640723FB6407F13C031946434801F084
:102A9800C5FB00220021262001F07FF8262001F046
:102AA80098F873E07B681B683D4A934235D1002350
:102AB8007B61394B1B6C384A43F480231364364BD3
:102AC8001B6C03F480237B617B6900233B61324BE1
:102AD8001B6B314A43F0020313632F4B1B6B03F04C
:102AE80002033B613B694FF44063FB6302233B6491
:102AF80000237B640323BB640723FB6407F13C03C7
:102B08001946284801F08AFB00220021272001F0FD
:102B180044F8272001F05DF838E07B681B68224AFA
:102B2800934233D10023FB601B4B5B6C1A4A43F082
:102B380020035364184B5B6C03F02003FB60FB68B5
:102B48000023BB60144B1B6B134A43F0040313634D
:102B5800114B1B6B03F00403BB60BB68C023FB6312
:102B680002233B6400237B640323BB640823FB64C8
:102B780007F13C0319460D4801F050FB00220021E3
:102B8800472001F00AF8472001F023F800BF50372A
:102B9800BD4680BD004400400038024000000240AD
:102BA80000480040000402400014014000080240B0
:102BB800DFF834D0002103E00C4B5B58435004315C
:102BC8000B480C4B42189A42F6D30B4A02E00023FA
:102BD80042F8043B094B9A42F9D3FFF795F804F001
:102BE8006FF8FEF7B9FC704700000220E089000882
:102BF80000000020DC010020DC0100205C07002030
:102C0800FEE7000080B500AF0E4B1B680D4A43F489
:102C1800007313600B4B1B680A4A43F4806313600C
:102C2800084B1B68074A43F480731360032000F0C5
:102C3800A9FF002000F008F8FEF762FF00231846FD
:102C480080BD00BF003C024080B582B000AF786014
:102C5800124B1A68124B1B7819464FF47A73B3FB60
:102C6800F1F3B2FBF3F3184600F0C1FF0346002B63
:102C780001D001230EE07B680F2B0AD80022796867
:102C88004FF0FF3000F089FF064A7B68136000238D
:102C980000E0012318460837BD4680BD000000202B
:102CA800080000200400002080B400AF064B1B7809
:102CB8001A46064B1B681344044A136000BFBD46FE
:102CC8005DF8047B704700BF08000020540700200F
:102CD80080B400AF034B1B681846BD465DF8047B03
:102CE800704700BF5407002080B584B000AF7860FB
:102CF800FFF7EEFFB8607B68FB60FB68B3F1FF3F4E
:102D080005D0094B1B781A46FB681344FB6000BFCB
:102D1800FFF7DEFF0246BB68D31AFA689A42F7D873
:102D280000BF1037BD4680BD0800002080B584B0C4
:102D380000AF78607B68002B01D10123EDE07B6850
:102D480093F82030DBB2002B02D17868FEF7C0F888
:102D58007B681B681A687B681B6822F002021A608D
:102D6800FFF7B6FFF86012E0FFF7B2FF0246FB6814
:102D7800D31A0A2B0BD97B685B6A43F400327B6851
:102D88005A627B68052283F820200123C5E07B680E
:102D98001B685B6803F00203002BE5D17B681B68A6
:102DA8001A687B681B6842F001021A60FFF790FFFF
:102DB800F86012E0FFF78CFF0246FB68D31A0A2B73
:102DC8000BD97B685B6A43F400327B685A627B6884
:102DD800052283F8202001239FE07B681B685B683D
:102DE80003F00103002BE5D07B681B7E012B08D183
:102DF8007B681B681A687B681B6842F080021A604F
:102E080007E07B681B681A687B681B6822F08002F1
:102E18001A607B685B7E012B08D17B681B681A6887
:102E28007B681B6842F040021A6007E07B681B68F9
:102E38001A687B681B6822F040021A607B689B7ED8
:102E4800012B08D17B681B681A687B681B6842F0F5
:102E580020021A6007E07B681B681A687B681B6899
:102E680022F020021A607B68DB7E012B08D17B6888
:102E78001B681A687B681B6822F010021A6007E05A
:102E88007B681B681A687B681B6842F010021A602E
:102E98007B681B7F012B08D17B681B681A687B68DD
:102EA8001B6842F008021A6007E07B681B681A6812
:102EB8007B681B6822F008021A607B685B7F012B25
:102EC80008D17B681B681A687B681B6842F004029B
:102ED8001A6007E07B681B681A687B681B6822F029
:102EE80004021A607B689A687B68DB681A437B680F
:102EF8001B691A437B685B6942EA03017B685B686C
:102F08005A1E7B681B680A43DA617B6800225A6292
:102F18007B68012283F82020002318461037BD461D
:102F280080BD000080B487B000AF786039607B68EE
:102F38001B687B617B6893F82030FB74FB7C012B5A
:102F480003D0FB7C022B40F0BE80654B7B617B6924
:102F5800D3F8003243F001027B69C3F800227B6991
:102F6800D3F8003223F47C527B69C3F800227B69D2
:102F7800D3F800223B685B6A1B021A437B69C3F8DB
:102F880000223B685B6903F01F03012202FA03F386
:102F9800FB607B69D3F81C22FB68DB431A407B6922
:102FA800C3F81C223B68DB69002B23D17B69D3F86B
:102FB8000C22FB68DB431A407B69C3F80C223B6890
:102FC800DB6819043B685B689BB23A68526919432D
:102FD8007B69483243F832103B689B6819043B68A8
:102FE8001B689AB23B685B690A4379694833DB001E
:102FF8000B445A603B68DB69012B22D17B69D3F80B
:103008000C22FB681A437B69C3F80C223B681B68D7
:1030180019043B685B689BB23A68526919437B693B
:10302800483243F832103B689B6819043B68DB68F8
:103038009AB23B685B690A4379694833DB000B4401
:103048005A603B689B69002B09D17B69D3F804223D
:10305800FB68DB431A407B69C3F8042207E07B69FD
:10306800D3F80422FB681A437B69C3F804223B683F
:103078001B69002B09D17B69D3F81422FB68DB4359
:103088001A407B69C3F8142207E07B69D3F814223D
:10309800FB681A437B69C3F814223B681B6A012B3F
:1030A80007D17B69D3F81C22FB681A437B69C3F8F4
:1030B8001C227B69D3F8003223F001027B69C3F834
:1030C8000022002306E07B685B6A43F480227B6869
:1030D8005A62012318461C37BD465DF8047B7047C9
:1030E8000064004080B584B000AF78607B6893F8D6
:1030F8002030DBB2012B2ED17B68022283F82020FE
:103108007B681B681A687B681B6822F001021A60DA
:10311800FFF7DEFDF86012E0FFF7DAFD0246FB6814
:10312800D31A0A2B0BD97B685B6A43F400327B689D
:103138005A627B68052283F82020012312E07B680D
:103148001B685B6803F00103002BE5D17B68002254
:103158005A62002306E07B685B6A43F400227B68BE
:103168005A62012318461037BD4680BD80B489B025
:1031780000AFF860B9607A603B60FB6893F8203074
:10318800FB77FB681B689B68BB61FB7F012B03D047
:10319800FB7F022B40F0B880BB6903F08063002BF3
:1031A8000AD1BB6903F00063002B05D1BB6903F0AA
:1031B8008053002B00F0A080BB691B0E03F00303B3
:1031C8007B617B69022B07D9FB685B6A43F40002C9
:1031D800FB685A6201239EE001227B699A403B68A2
:1031E8001A60BB689B68002B0DD1BB681B685A0529
:1031F800BB68DB68F96809681A437B6918331B01E7
:103208000B441A600FE0BB685B68DA00BB689B6818
:103218001A43BB68DB68F96809681A437B69183385
:103228001B010B441A60FB681968BB681A697B6943
:1032380018331B010B4404331A60BB681B7D012B38
:1032480011D1FB681A687B6918331B0113440433D6
:103258001B68FA68116843F480727B6918331B0194
:103268000B4404331A607B6807331B781A067B68A3
:1032780006331B781B041A437B6805331B781B0233
:1032880013437A68043212781046FA68116843EAE0
:1032980000027B691B010B4403F5C6731A607B6847
:1032A80003331B781A067B6802331B781B041A4306
:1032B8007B6801331B781B0213437A681278104627
:1032C800FA68116843EA00027B691B010B4403F5A5
:1032D800C4731A60FB681A687B6918331B011344AE
:1032E8001B68FA68116843F001027B6918331B01F7
:1032F8000B441A6000230EE0FB685B6A43F400127B
:10330800FB685A62012306E0FB685B6A43F480228B
:10331800FB685A62012318462437BD465DF8047BD2
:10332800704780B487B000AFF860B9607A603B60DE
:10333800FB6893F82030FB75FB7D012B03D0FB7DE8
:10334800022B40F0F380BB68002B0ED1FB681B6892
:10335800DB6803F00303002B16D1FB685B6A43F4B8
:103368000012FB685A620123E7E0FB681B681B69CF
:1033780003F00303002B07D1FB685B6A43F40012D8
:10338800FB685A620123D8E0FB681A68BB681B33E4
:103398001B0113441B6803F004027B689A607B6876
:1033A8009B68002B0CD1FB681A68BB681B331B0198
:1033B80013441B685B0DC3F30A027B681A600BE0B9
:1033C800FB681A68BB681B331B0113441B68DB08C6
:1033D80023F060427B685A60FB681A68BB681B333D
:1033E8001B0113441B6803F002027B68DA60FB6868
:1033F8001A68BB681B331B01134404331B6803F0B2
:103408000F027B681A61FB681A68BB681B331B01D3
:10341800134404331B681B0ADAB27B689A61FB68A1
:103428001A68BB681B331B01134404331B681B0C4D
:103438009AB27B685A61FB681A68BB681B0113441F
:1034480003F5DC731B68DAB23B681A70FB681A680C
:10345800BB681B01134403F5DC731B681A0A3B683D
:103468000133D2B21A70FB681A68BB681B01134497
:1034780003F5DC731B681A0C3B680233D2B21A706E
:10348800FB681A68BB681B01134403F5DC731B68EF
:103498001A0E3B680333D2B21A70FB681A68BB680D
:1034A8001B01134403F5DE731A683B680433D2B278
:1034B8001A70FB681A68BB681B01134403F5DE73B6
:1034C8001B681A0A3B680533D2B21A70FB681A687F
:1034D800BB681B01134403F5DE731B681A0C3B68B9
:1034E8000633D2B21A70FB681A68BB681B01134412
:1034F80003F5DE731B681A0E3B680733D2B21A70E5
:10350800BB68002B08D1FB681B68DA68FB681B687E
:1035180042F02002DA6007E0FB681B681A69FB6862
:103528001B6842F020021A61002306E0FB685B6A10
:1035380043F48022FB685A62012318461C37BD46B3
:103548005DF8047B704780B485B000AF786039605F
:103558007B6893F82030FB73FB7B012B02D0FB7B4D
:10356800022B09D17B681B6859697B681B683A681C
:103578000A435A61002306E07B685B6A43F48022B1
:103588007B685A62012318461437BD465DF8047BF0
:10359800704780B58AB000AF786000237B627B6893
:1035A8001B685B693B627B681B685B68FB617B68C7
:1035B8001B689B68BB617B681B68DB687B617B68F9
:1035C8001B681B693B617B681B689B69FB603B6AE6
:1035D80003F00103002B7CD0BB6903F00103002B2F
:1035E80023D07B681B6801229A60BB6903F0020341
:1035F800002B03D0786800F07DF916E0BB6903F072
:103608000403002B04D07B6A43F400637B620CE064
:10361800BB6903F00803002B04D07B6A43F4805392
:103628007B6202E0786800F083F9BB6903F4807379
:10363800002B24D07B681B684FF480729A60BB69AA
:1036480003F40073002B03D0786800F05DF916E0EE
:10365800BB6903F48063002B04D07B6A43F40053F6
:103668007B620CE0BB6903F40063002B04D07B6A27
:1036780043F480437B6202E0786800F063F9BB6939
:1036880003F48033002B24D07B681B684FF480320E
:103698009A60BB6903F40033002B03D0786800F00C
:1036A8003DF916E0BB6903F48023002B04D07B6A44
:1036B80043F400437B620CE0BB6903F40023002B56
:1036C80004D07B6A43F480337B6202E0786800F0C0
:1036D80043F93B6A03F00803002B0CD07B6903F025
:1036E8001003002B07D07B6A43F400737B627B686E
:1036F8001B681022DA603B6A03F00403002B0BD02E
:103708007B6903F00803002B06D07B681B6808223E
:10371800DA60786800F02AF93B6A03F00203002BAC
:1037280009D07B681B68DB6803F00303002B02D019
:103738007868FDF75DFE3B6A03F04003002B0CD070
:103748003B6903F01003002B07D07B6A43F48063C6
:103758007B627B681B6810221A613B6A03F02003B6
:10376800002B0BD03B6903F00803002B06D07B68C5
:103778001B6808221A61786800F00CF93B6A03F0AC
:103788001003002B09D07B681B681B6903F0030337
:10379800002B02D0786800F0F3F83B6A03F400339A
:1037A800002B0BD0FB6903F01003002B06D07B68BD
:1037B8001B6810225A60786800F0F6F83B6A03F438
:1037C8008033002B0BD0FB6903F00803002B06D0D5
:1037D8007B681B6808225A60786800F0EFF83B6A3B
:1037E80003F40043002B75D0FB6903F00403002B9E
:1037F8006CD03B6A03F48073002B08D0FB6803F09D
:103808000103002B03D07B6A43F001037B623B6A10
:1038180003F40073002B08D0FB6803F00203002BAD
:1038280003D07B6A43F002037B623B6A03F4806344
:10383800002B08D0FB6803F00403002B03D07B6A3D
:1038480043F004037B623B6A03F40063002B3DD022
:10385800FB6803F07003002B38D0FB6803F070039B
:10386800302B17D0302B04D8102B09D0202B0CD09C
:1038780024E0502B18D0602B1BD0402B0FD01DE01C
:103888007B6A43F008037B6218E07B6A43F010030D
:103898007B6213E07B6A43F020037B620EE07B6A65
:1038A80043F040037B6209E07B6A43F080037B625C
:1038B80004E07B6A43F480737B6200BF7B681B680B
:1038C8009A697B681B6822F070029A617B681B68A2
:1038D80004225A607B6A002B08D07B685A6A7B6A8C
:1038E8001A437B685A62786800F072F800BF28377C
:1038F800BD4680BD80B483B000AF786000BF0C3790
:10390800BD465DF8047B704780B483B000AF786033
:1039180000BF0C37BD465DF8047B704780B483B0A8
:1039280000AF786000BF0C37BD465DF8047B704778
:1039380080B483B000AF786000BF0C37BD465DF837
:10394800047B704780B483B000AF786000BF0C3749
:10395800BD465DF8047B704780B483B000AF7860E3
:1039680000BF0C37BD465DF8047B704780B483B058
:1039780000AF786000BF0C37BD465DF8047B704728
:1039880080B483B000AF786000BF0C37BD465DF8E7
:10399800047B704780B483B000AF786000BF0C37F9
:1039A800BD465DF8047B704780B483B000AF786093
:1039B80000BF0C37BD465DF8047B704780B483B008
:1039C80000AF786000BF0C37BD465DF8047B7047D8
:1039D80080B483B000AF786000BF0C37BD465DF897
:1039E800047B704780B485B000AF78607B6803F0D3
:1039F8000703FB600C4BDB68BB60BA684FF6FF033C
:103A08001340BB60FB681A02BB68134343F0BF63F3
:103A180043F40033BB60044ABB68D36000BF14376B
:103A2800BD465DF8047B704700ED00E080B400AF50
:103A3800044BDB681B0A03F007031846BD465DF814
:103A4800047B704700ED00E080B483B000AF03460C
:103A5800FB7197F90730002B0BDBFB7903F01F0292
:103A6800074997F907305B09012000FA02F241F88B
:103A7800232000BF0C37BD465DF8047B704700BFAC
:103A880000E100E080B483B000AF03463960FB7109
:103A980097F90730002B0ADB3B68DAB20C4997F933
:103AA80007301201D2B20B4483F800230AE03B68C6
:103AB800DAB20849FB7903F00F03043B1201D2B2D2
:103AC8000B441A7600BF0C37BD465DF8047B70477F
:103AD80000E100E000ED00E080B489B000AFF860DC
:103AE800B9607A60FB6803F00703FB61FB69C3F107
:103AF8000703042B28BF0423BB61FB690433062B8F
:103B080002D9FB69033B00E000237B614FF0FF32E1
:103B1800BB6902FA03F3DA43BB681A407B699A402F
:103B28004FF0FF317B6901FA03F3D9437B680B40FF
:103B3800134318462437BD465DF8047B70470000E0
:103B480080B582B000AF78607B68013BB3F1807FBD
:103B580001D301230FE00A4A7B68013B53600F2120
:103B68004FF0FF30FFF78EFF054B00229A60044BA1
:103B780007221A60002318460837BD4680BD00BFDB
:103B880010E000E080B582B000AF78607868FFF799
:103B980029FF00BF0837BD4680BD80B586B000AF9D
:103BA8000346B9607A60FB7300237B61FFF73EFF31
:103BB80078617A68B9687869FFF78EFF024697F9E5
:103BC8000F3011461846FFF75DFF00BF1837BD4696
:103BD80080BD80B582B000AF0346FB7197F907300E
:103BE8001846FFF731FF00BF0837BD4680BD80B5D6
:103BF80082B000AF78607868FFF7A2FF03461846E6
:103C08000837BD4680BD000080B586B000AF78603B
:103C180000237B61FFF75CF838617B68002B01D1DA
:103C2800012399E07B68002283F834207B68022214
:103C380083F835207B681B681A687B681B6822F04C
:103C480001021A600FE0FFF743F802463B69D31AF6
:103C5800052B08D97B6820225A657B68032283F8E4
:103C68003520032378E07B681B681B6803F0010399
:103C7800002BE8D17B681B681B687B617A69384B2D
:103C880013407B617B685A687B689B681A437B6832
:103C9800DB681A437B681B691A437B685B691A43B4
:103CA8007B689B691A437B68DB691A437B681B6ADC
:103CB80013437A6913437B617B685B6A042B07D1E2
:103CC8007B68DA6A7B681B6B13437A6913437B61F1
:103CD8007B681B687A691A607B681B685B697B6113
:103CE8007B6923F007037B617B685B6A7A6913430E
:103CF8007B617B685B6A042B17D17B689B6A7A6956
:103D080013437B617B68DB6A002B0ED0786800F078
:103D18000BFA0346002B08D07B6840225A657B6863
:103D2800012283F83520012316E07B681B687A6935
:103D38005A61786800F0C2F90346FB607B68DB6D66
:103D48003F229A40FB689A607B6800225A657B682C
:103D5800012283F83520002318461837BD4680BD58
:103D68003F8010F080B483B000AF78607B6893F830
:103D78003530DBB2022B04D07B6880225A650123E0
:103D88000CE07B68052283F835207B681B681A687D
:103D98007B681B6822F001021A60002318460C3762
:103DA800BD465DF8047B704780B586B000AF78608B
:103DB8000023BB60924B1B68924AA2FB03239B0A19
:103DC8007B617B689B6D3B613B691B68FB607B6823
:103DD800DB6D08229A40FB681340002B1AD07B68E1
:103DE8001B681B6803F00403002B13D07B681B6857
:103DF8001A687B681B6822F004021A607B68DB6D16
:103E080008229A403B699A607B685B6D43F0010227
:103E18007B685A657B68DB6D01229A40FB6813401A
:103E2800002B12D07B681B685B6903F08003002BB2
:103E38000BD07B68DB6D01229A403B699A607B68F6
:103E48005B6D43F002027B685A657B68DB6D042278
:103E58009A40FB681340002B12D07B681B681B68D4
:103E680003F00203002B0BD07B68DB6D04229A4021
:103E78003B699A607B685B6D43F004027B685A6516
:103E88007B68DB6D10229A40FB681340002B43D0FF
:103E98007B681B681B6803F00803002B3CD07B6819
:103EA800DB6D10229A403B699A607B681B681B682F
:103EB80003F48023002B18D07B681B681B6803F46D
:103EC8000023002B08D17B681B6C002B24D07B6857
:103ED8001B6C786898471FE07B689B6C002B1BD095
:103EE8007B689B6C7868984716E07B681B681B6842
:103EF80003F48073002B07D17B681B681A687B6802
:103F08001B6822F008021A607B681B6C002B03D028
:103F18007B681B6C786898477B68DB6D20229A4029
:103F2800FB681340002B00F08E807B681B681B68C1
:103F380003F01003002B00F086807B68DB6D2022E5
:103F48009A403B699A607B6893F83530DBB2052B61
:103F580036D17B681B681A687B681B6822F01602DA
:103F68001A607B681B685A697B681B6822F08002AC
:103F78005A617B681B6C002B03D17B689B6C002B00
:103F880007D07B681B681A687B681B6822F00802E8
:103F98001A607B68DB6D3F229A403B699A607B68B8
:103FA800002283F834207B68012283F835207B685F
:103FB8001B6D002B7DD07B681B6D7868984778E077
:103FC8007B681B681B6803F48023002B1CD07B686C
:103FD8001B681B6803F40023002B08D17B685B6C0B
:103FE800002B30D07B685B6C786898472BE07B6847
:103FF800DB6B002B27D07B68DB6B7868984722E067
:1040080000000020B5814E1B7B681B681B6803F409
:104018008073002B0FD17B681B681A687B681B684C
:1040280022F010021A607B68002283F834207B6833
:10403800012283F835207B68DB6B002B03D07B687B
:10404800DB6B786898477B685B6D002B32D07B68A8
:104058005B6D03F00103002B22D07B68052283F8F7
:1040680035207B681B681A687B681B6822F0010290
:104078001A60BB680133BB607A699A4207D37B68D0
:104088001B681B6803F00103002BF2D100E000BF9E
:104098007B68002283F834207B68012283F835206E
:1040A8007B68DB6C002B05D07B68DB6C78689847F5
:1040B80000E000BF1837BD4680BD00BF80B485B0A2
:1040C80000AF78607B681B68DBB2103B144AA2FB28
:1040D80003231B09FB60134AFB6813441B781A4629
:1040E8007B68DA65FB68032B09D97B681B6823F4B6
:1040F8007F7323F003031A1D7B689A6507E07B68CA
:104108001B6823F47F7323F003037A6893657B6845
:104118009B6D18461437BD465DF8047B704700BF99
:10412800ABAAAAAAA087000880B485B000AF7860BF
:104138000023FB737B689B6ABB607B689B69002BD1
:104148001FD1BB68032B55D801A252F823F000BF3A
:10415800694100087B41000869410008FD410008E9
:104168007B68DB6A03F08073002B45D00123FB7367
:1041780042E07B68DB6AB3F1C07F3FD10123FB7368
:104188003CE07B689B69B3F5005F21D1BB68032BDA
:1041980036D801A252F823F0B1410008B74100080F
:1041A800B1410008C94100080123FB732FE07B6877
:1041B800DB6A03F08073002B24D00123FB7321E01A
:1041C8007B68DB6AB3F1C07F1ED10123FB731BE060
:1041D800BB68022B02D9032B03D018E00123FB7321
:1041E80015E07B68DB6A03F08073002B0ED0012397
:1041F800FB730BE000BF0AE000BF08E000BF06E069
:1042080000BF04E000BF02E000BF00E000BFFB7B8E
:1042180018461437BD465DF8047B704780B489B0F2
:1042280000AF7860396000237B6100233B61002385
:10423800BB610023FB616BE10122FB6902FA03F316
:104248007B613B681B687A6913403B613A697B690B
:104258009A4240F05A813B685B68012B0BD03B685F
:104268005B68022B07D03B685B68112B03D03B6867
:104278005B68122B30D17B689B68BB61FB695B0074
:10428800032202FA03F3DB43BA691340BB613B68BC
:10429800DA68FB695B0002FA03F3BA691343BB618E
:1042A8007B68BA699A607B685B68BB610122FB69BD
:1042B80002FA03F3DB43BA691340BB613B685B68EE
:1042C8001B0903F00102FB6902FA03F3BA691343FD
:1042D800BB617B68BA695A607B68DB68BB61FB6954
:1042E8005B00032202FA03F3DB43BA691340BB61A4
:1042F8003B689A68FB695B0002FA03F3BA691343E7
:10430800BB617B68BA69DA603B685B68022B03D0E3
:104318003B685B68122B23D1FB69DA087B6808329B
:1043280053F82230BB61FB6903F007039B000F229F
:1043380002FA03F3DB43BA691340BB613B681A69AD
:10434800FB6903F007039B0002FA03F3BA691343FE
:10435800BB61FB69DA087B680832B96943F8221047
:104368007B681B68BB61FB695B00032202FA03F3ED
:10437800DB43BA691340BB613B685B6803F0030227
:10438800FB695B0002FA03F3BA691343BB617B68FC
:10439800BA691A603B685B6803F08053002B00F031
:1043A800B4800023FB605F4B5B6C5E4A43F4804340
:1043B80053645C4B5B6C03F48043FB60FB685A4AB4
:1043C800FB699B08023352F82330BB61FB6903F099
:1043D80003039B000F2202FA03F3DB43BA6913407D
:1043E800BB617B68514A93422BD07B68504A934209
:1043F80025D07B684F4A93421FD07B684E4A934230
:1044080019D07B684D4A934213D07B684C4A93423B
:104418000DD07B684B4A934207D07B684A4A934247
:1044280001D107230EE008230CE006230AE0052348
:1044380008E0042306E0032304E0022302E001234A
:1044480000E00023FA6902F0030292009340BA697F
:104458001343BB613449FB699B080233BA6941F8CD
:1044680023203A4B1B68BB613B69DB43BA691340A5
:10447800BB613B685B6803F48033002B03D0BA69E7
:104488003B691343BB61314ABB6913602F4B5B68BF
:10449800BB613B69DB43BA691340BB613B685B683E
:1044A80003F40033002B03D0BA693B691343BB61A3
:1044B800264ABB695360254B9B68BB613B69DB435C
:1044C800BA691340BB613B685B6803F48013002B37
:1044D80003D0BA693B691343BB611C4ABB6993604B
:1044E8001A4BDB68BB613B69DB43BA691340BB61AC
:1044F8003B685B6803F40013002B03D0BA693B697F
:104508001343BB61114ABB69D360FB690133FB618B
:10451800FB690F2B7FF690AE00BF2437BD465DF8D0
:10452800047B704700380240003801400000024018
:104538000004024000080240000C02400010024043
:104548000014024000180240001C0240003C0140D8
:1045580080B483B000AF78600B467B8013467B70D5
:104568007B78002B03D07A887B689A6103E07B888C
:104578001A047B689A6100BF0C37BD465DF8047B5E
:10458800704780B483B000AF78600B467B807B684F
:104598005A697B881A407B889A4204D17B881A041E
:1045A8007B689A6102E07A887B689A6100BF0C3761
:1045B800BD465DF8047B704780B586B000AF786073
:1045C8007B68002B01D101235BE27B681B6803F049
:1045D8000103002B75D0A34B9B6803F00C03042B3D
:1045E8000CD0A04B9B6803F00C03082B12D19D4BF9
:1045F8005B6803F48003B3F5800F0BD1994B1B68FC
:1046080003F40033002B5BD07B685B68002B57D129
:10461800012336E27B685B68B3F5803F06D1914B96
:104628001B68904A43F4803313601DE07B685B6825
:10463800B3F5A02F0CD18B4B1B688A4A43F4802317
:104648001360884B1B68874A43F4803313600BE080
:10465800844B1B68834A23F480331360814B1B68A7
:10466800804A23F4802313607B685B68002B13D097
:10467800FEF72EFB386108E0FEF72AFB02463B698D
:10468800D31A642B01D90323FBE1764B1B6803F48F
:104698000033002BF0D014E0FEF71AFB386108E075
:1046A800FEF716FB02463B69D31A642B01D9032394
:1046B800E7E16C4B1B6803F40033002BF0D100E0FA
:1046C80000BF7B681B6803F00203002B63D0654BB7
:1046D8009B6803F00C03002B0BD0624B9B6803F024
:1046E8000C03082B1CD15F4B5B6803F48003002B81
:1046F80016D15C4B1B6803F00203002B05D07B68C6
:10470800DB68012B01D00123BBE1564B1B6823F06A
:10471800F8027B681B69DB00524913430B603AE0DF
:104728007B68DB68002B20D04F4B01221A60FEF714
:10473800CFFA386108E0FEF7CBFA02463B69D31A94
:10474800022B01D903239CE1464B1B6803F00203AB
:10475800002BF0D0434B1B6823F0F8027B681B69E1
:10476800DB00404913430B6015E03F4B00221A6001
:10477800FEF7AEFA386108E0FEF7AAFA02463B698E
:10478800D31A022B01D903237BE1364B1B6803F0B4
:104798000203002BF0D17B681B6803F00803002B91
:1047A80030D07B685B69002B16D0304B01221A6031
:1047B800FEF78EFA386108E0FEF78AFA02463B698E
:1047C800D31A022B01D903235BE1264B5B6F03F05D
:1047D8000203002BF0D015E0244B00221A60FEF7EC
:1047E80077FA386108E0FEF773FA02463B69D31A94
:1047F800022B01D9032344E11A4B5B6F03F0020338
:10480800002BF0D17B681B6803F00403002B00F039
:10481800A0800023FB75134B1B6C03F08053002B07
:104828000FD10023BB600F4B1B6C0E4A43F0805323
:1048380013640C4B1B6C03F08053BB60BB680123F3
:10484800FB750B4B1B6803F48073002B21D1084BBD
:104858001B68074A43F480731360FEF739FA38611E
:1048680011E000BF0038024000004742800E474276
:1048780000700040FEF72CFA02463B69D31A022B5F
:1048880001D90323FDE0814B1B6803F48073002BDF
:10489800F0D07B689B68012B06D17D4B1B6F7C4A4F
:1048A80043F0010313671CE07B689B68052B0CD160
:1048B800774B1B6F764A43F004031367744B1B6FE7
:1048C800734A43F0010313670BE0714B1B6F704A87
:1048D80023F0010313676E4B1B6F6D4A23F004032B
:1048E80013677B689B68002B15D0FEF7F1F93861D8
:1048F8000AE0FEF7EDF902463B69D31A41F2883225
:10490800934201D90323BCE0614B1B6F03F0020300
:10491800002BEED014E0FEF7DBF938610AE0FEF771
:10492800D7F902463B69D31A41F28832934201D93A
:104938000323A6E0564B1B6F03F00203002BEED1B6
:10494800FB7D012B05D1524B1B6C514A23F0805340
:1049580013647B689B69002B00F092804C4B9B682A
:1049680003F00C03082B5CD07B689B69022B41D1B8
:10497800484B00221A60FEF7ABF9386108E0FEF7F1
:10498800A7F902463B69D31A022B01D9032378E021
:104998003F4B1B6803F00073002BF0D17B68DA698A
:1049A8007B681B6A1A437B685B6A9B011A437B68B6
:1049B8009B6A5B08013B1B041A437B68DB6A1B0686
:1049C800334913434B60334B01221A60FEF780F9D9
:1049D800386108E0FEF77CF902463B69D31A022BDE
:1049E80001D903234DE02A4B1B6803F00073002B09
:1049F800F0D045E0274B00221A60FEF769F93861CC
:104A080008E0FEF765F902463B69D31A022B01D983
:104A1800032336E01E4B1B6803F00073002BF0D114
:104A28002EE07B689B69012B01D1012329E0184BFB
:104A38005B68FB60FB6803F480027B68DB699A4271
:104A48001CD1FB6803F03F027B681B6A9A4215D1B0
:104A5800FA6847F6C07313407A68526A93420DD1D8
:104A6800FB6803F440327B689B6A9A4206D1FB6874
:104A780003F070627B68DB6A9A4201D0012300E090
:104A8800002318461837BD4680BD00BF007000409F
:104A9800003802406000474280B584B000AF7860BB
:104AA80039607B68002B01D10123CCE0684B1B687F
:104AB80003F00F033A689A420CD9654B3A68D2B2B0
:104AC8001A70634B1B6803F00F033A689A4201D0CF
:104AD8000123B8E07B681B6803F00203002B20D099
:104AE8007B681B6803F00403002B05D0594B9B68B7
:104AF800584A43F4E05393607B681B6803F008034B
:104B0800002B05D0534B9B68524A43F46043936093
:104B1800504B9B6823F0F0027B689B684D49134318
:104B28008B607B681B6803F00103002B44D07B6813
:104B38005B68012B07D1474B1B6803F40033002B3C
:104B480019D101237FE07B685B68022B03D07B6867
:104B58005B68032B07D13F4B1B6803F00073002BE6
:104B680009D101236FE03B4B1B6803F00203002BC4
:104B780001D1012367E0374B9B6823F003027B6870
:104B88005B68344913438B60FEF7A2F8F8600AE0CB
:104B9800FEF79EF80246FB68D31A41F28832934228
:104BA80001D903234FE02B4B9B6803F00C027B6871
:104BB8005B689B009A42EBD1254B1B6803F00F03FF
:104BC8003A689A420CD2224B3A68D2B21A70204BF9
:104BD8001B6803F00F033A689A4201D0012332E0C0
:104BE8007B681B6803F00403002B08D0194B9B68F3
:104BF80023F4E0527B68DB68164913438B607B68BB
:104C08001B6803F00803002B09D0124B9B6823F4A0
:104C180060427B681B69DB000E4913438B6000F020
:104C280021F801460B4B9B681B0903F00F030A4A46
:104C3800D35C21FA03F3094A1360094B1B68184631
:104C4800FEF702F8002318461037BD4680BD00BFA6
:104C5800003C02400038024088870008000000201D
:104C680004000020F0B585B000AF00237B6000236E
:104C7800FB6000233B600023BB60504B9B6803F044
:104C88000C03042B07D0082B08D0002B40F08D8094
:104C98004B4BBB608CE04B4BBB6089E0474B5B6880
:104CA80003F03F037B60454B5B6803F48003002BF4
:104CB80023D0424B5B689B094FF0000440F2FF1180
:104CC8004FF0000203EA010504EA02063D4A02FB2E
:104CD80006F1002202FB05F20A443A49A5FB01014C
:104CE800531819467B684FF000041A462346FBF711
:104CF80003FF03460C46FB6049E0304B5B689B09A9
:104D08004FF0000440F2FF114FF0000203EA0105E2
:104D180004EA0206294632464FF000034FF0000429
:104D2800540144EAD1644B0119462246491B62EBFF
:104D380006024FF000034FF00004940144EA916426
:104D48008B015B1A64EB02044FF000014FF0000284
:104D5800E20042EA5372D9000B4614465B1944EB51
:104D680006044FF000014FF00002A20242EA9352FB
:104D780099020B461446184621467B684FF00004FA
:104D88001A462346FBF7B8FE03460C46FB600B4B5E
:104D98005B681B0C03F0030301335B003B60FA689C
:104DA8003B68B2FBF3F3BB6002E0054BBB6000BF9E
:104DB800BB6818461437BD46F0BD00BF0038024036
:104DC8000024F400001BB70080B400AF034B1B683D
:104DD8001846BD465DF8047B704700BF0000002000
:104DE80080B500AFFFF7F0FF0146054B9B689B0AB3
:104DF80003F00703034AD35C21FA03F3184680BD86
:104E0800003802409887000880B500AFFFF7DCFF44
:104E18000146054B9B685B0B03F00703034AD35C11
:104E280021FA03F3184680BD00380240988700082D
:104E380080B582B000AF78607B68002B01D1012378
:104E480056E07B6800229A627B6893F85130DBB2A7
:104E5800002B06D17B68002283F850207868FCF785
:104E6800D1FD7B68022283F851207B681B681A6891
:104E78007B681B6822F040021A607B685A687B686E
:104E88009B681A437B68DB681A437B681B691A4373
:104E98007B685B691A437B689B6903F400731A4358
:104EA8007B68DB691A437B681B6A42EA03017B68FB
:104EB8009A6A7B681B680A431A607B689B691B0CAB
:104EC80003F004017B685A6A7B681B680A435A60CE
:104ED8007B681B68DA697B681B6822F40062DA6108
:104EE8007B6800225A657B68012283F851200023E1
:104EF80018460837BD4680BD80B582B000AF7860DF
:104F08007B68002B01D101231DE07B6893F83D30BD
:104F1800DBB2002B06D17B68002283F83C2078683E
:104F2800FDF7D2F97B68022283F83D207B681A6876
:104F38007B6804331946104600F09CFB7B6801220D
:104F480083F83D20002318460837BD4680BD80B44D
:104F580085B000AF78607B681B68DA687B681B687F
:104F680042F00102DA607B681B689B6803F0070364
:104F7800FB60FB68062B07D07B681B681A687B6898
:104F88001B6842F001021A60002318461437BD4618
:104F98005DF8047B704780B582B000AF78607B68AD
:104FA800002B01D101231DE07B6893F83D30DBB273
:104FB800002B06D17B68002283F83C207868FDF737
:104FC8001FFA7B68022283F83D207B681A687B6899
:104FD80004331946104600F04DFB7B68012283F824
:104FE8003D20002318460837BD4680BD80B584B0F3
:104FF80000AF786039607B681B6801223968184601
:1050080000F022FE7B681B68154A934204D07B6837
:105018001B68144A934201D1012300E00023002BAE
:1050280007D07B681B685A6C7B681B6842F4004297
:105038005A647B681B689B6803F00703FB60FB6886
:10504800062B07D07B681B681A687B681B6842F0D0
:1050580001021A60002318461037BD4680BD00BF04
:10506800000001400004014080B582B000AF7860C4
:1050780039607B681B6800223968184600F0E4FD37
:105088007B681B68224A934204D07B681B68214ACC
:10509800934201D1012300E00023002B17D07B6845
:1050A8001B681A6A41F211131340002B0FD17B6859
:1050B8001B681A6A40F244431340002B07D17B68EF
:1050C8001B685A6C7B681B6822F400425A647B6830
:1050D8001B681A6A41F211131340002B0FD17B6829
:1050E8001B681A6A40F244431340002B07D17B68BF
:1050F8001B681A687B681B6822F001021A607B68CB
:10510800012283F83D20002318460837BD4680BD9C
:10511800000001400004014080B582B000AF786013
:105128007B681B681B6903F00203022B22D17B6892
:105138001B68DB6803F00203022B1BD17B681B682A
:105148006FF002021A617B6801221A777B681B687C
:105158009B6903F00303002B03D0786800F06BFA17
:1051680005E0786800F05DFA786800F06EFA7B6810
:1051780000221A777B681B681B6903F00403042B61
:1051880022D17B681B68DB6803F00403042B1BD166
:105198007B681B686FF004021A617B6802221A7729
:1051A8007B681B689B6903F44073002B03D0786805
:1051B80000F041FA05E0786800F033FA786800F00A
:1051C80044FA7B6800221A777B681B681B6903F026
:1051D8000803082B22D17B681B68DB6803F00803EF
:1051E800082B1BD17B681B686FF008021A617B686B
:1051F80004221A777B681B68DB6903F00303002B22
:1052080003D0786800F017FA05E0786800F009FA2A
:10521800786800F01AFA7B6800221A777B681B68A6
:105228001B6903F01003102B22D17B681B68DB6815
:1052380003F01003102B1BD17B681B686FF0100262
:105248001A617B6808221A777B681B68DB6903F49C
:105258004073002B03D0786800F0EDF905E078681A
:1052680000F0DFF9786800F0F0F97B6800221A771F
:105278007B681B681B6903F00103012B0ED17B6857
:105288001B68DB6803F00103012B07D17B681B68EF
:105298006FF001021A617868FBF7C8FF7B681B682A
:1052A8001B6903F08003802B0ED17B681B68DB68C9
:1052B80003F08003802B07D17B681B686FF08002A6
:1052C8001A61786800F0BEFD7B681B681B6903F0F3
:1052D8004003402B0ED17B681B68DB6803F040035A
:1052E800402B07D17B681B686FF040021A61786811
:1052F80000F0B5F97B681B681B6903F02003202BBD
:105308000ED17B681B68DB6803F02003202B07D1D4
:105318007B681B686FF020021A61786800F088FDCE
:1053280000BF0837BD4680BD80B584B000AFF860C7
:10533800B9607A60FB6893F83C30012B01D10223F5
:10534800B4E0FB68012283F83C20FB68022283F862
:105358003D207B680C2B00F29F8001A252F823F0BD
:105368009D530008A1540008A1540008A154000846
:10537800DD530008A1540008A1540008A1540008F6
:105388001F540008A1540008A1540008A1540008A3
:105398005F540008FB681B68B968184600F00AFAF1
:1053A800FB681B689A69FB681B6842F008029A61EF
:1053B800FB681B689A69FB681B6822F004029A6103
:1053C800FB681B689969BB681A69FB681B680A4314
:1053D8009A6162E0FB681B68B968184600F05AFADF
:1053E800FB681B689A69FB681B6842F400629A6153
:1053F800FB681B689A69FB681B6822F480629A61E3
:10540800FB681B689969BB681B691A02FB681B6803
:105418000A439A6141E0FB681B68B968184600F0C6
:10542800AFFAFB681B68DA69FB681B6842F0080280
:10543800DA61FB681B68DA69FB681B6822F0040202
:10544800DA61FB681B68D969BB681A69FB681B6865
:105458000A43DA6121E0FB681B68B968184600F066
:1054680003FBFB681B68DA69FB681B6842F400628F
:10547800DA61FB681B68DA69FB681B6822F48062E2
:10548800DA61FB681B68D969BB681B691A02FB688B
:105498001B680A43DA6100E000BFFB68012283F859
:1054A8003D20FB68002283F83C2000231846103773
:1054B800BD4680BD80B584B000AF786039607B6838
:1054C80093F83C30012B01D10223A6E07B6801222E
:1054D80083F83C207B68022283F83D207B681B68A8
:1054E8009B68FB60FB6823F07703FB60FB6823F491
:1054F8007F43FB607B681B68FA689A603B681B689F
:10550800402B67D0402B0BD8102B73D0102B02D810
:10551800002B6FD078E0202B6CD0302B6AD073E052
:10552800702B0DD0702B04D8502B33D0602B41D06A
:105538006AE0B3F5805F66D0B3F5005F17D063E02B
:105548007B6818683B6899683B685A683B68DB6801
:1055580000F05AFB7B681B689B68FB60FB6843F0A4
:105568007703FB607B681B68FA689A604CE07B688D
:1055780018683B6899683B685A683B68DB6800F0C4
:1055880043FB7B681B689A687B681B6842F480420F
:105598009A6039E07B6818683B6859683B68DB6843
:1055A8001A4600F0B7FA7B681B685021184600F0CD
:1055B80010FB29E07B6818683B6859683B68DB6822
:1055C8001A4600F0D6FA7B681B686021184600F07E
:1055D80000FB19E07B6818683B6859683B68DB6822
:1055E8001A4600F097FA7B681B684021184600F0BD
:1055F800F0FA09E07B681A683B681B681946104690
:1056080000F0E7FA00E000BF7B68012283F83D2044
:105618007B68002283F83C20002318461037BD46DB
:1056280080BD80B483B000AF786000BF0C37BD4642
:105638005DF8047B704780B483B000AF786000BF2A
:105648000C37BD465DF8047B704780B483B000AF6B
:10565800786000BF0C37BD465DF8047B704780B4A6
:1056680083B000AF786000BF0C37BD465DF8047B9F
:105678007047000080B485B000AF786039607B68FF
:105688001B68FB607B68404A934213D07B68B3F188
:10569800804F0FD07B683D4A93420BD07B683C4AD1
:1056A800934207D07B683B4A934203D07B683A4ACF
:1056B800934208D1FB6823F07003FB603B685B688A
:1056C800FA681343FB607B682F4A93422BD07B68B0
:1056D800B3F1804F27D07B682C4A934223D07B6854
:1056E8002B4A93421FD07B682A4A93421BD07B687F
:1056F800294A934217D07B68284A934213D07B6883
:10570800274A93420FD07B68264A93420BD07B6886
:10571800254A934207D07B68244A934203D07B688A
:10572800234A934208D1FB6823F44073FB603B682B
:10573800DB68FA681343FB60FB6823F080023B6870
:105748005B691343FB607B68FA681A603B689A6878
:105758007B68DA623B681A687B689A627B680A4AE7
:10576800934203D07B680C4A934203D13B681A6981
:105778007B681A637B6801225A6100BF1437BD46F3
:105788005DF8047B704700BF000001400004004042
:1057980000080040000C00400004014000400140A7
:1057A800004401400048014000180040001C00402F
:1057B8000020004080B487B000AF786039607B6813
:1057C8001B6A23F001027B681A627B681B6A7B6193
:1057D8007B685B683B617B689B69FB60FB6823F0C7
:1057E8007003FB60FB6823F00303FB603B681B68E6
:1057F800FA681343FB607B6923F002037B613B6813
:105808009B687A6913437B617B68204A934203D083
:105818007B681F4A93420CD17B6923F008037B61A4
:105828003B68DB687A6913437B617B6923F0040377
:105838007B617B68154A934203D07B68144A934284
:1058480011D13B6923F480733B613B6923F40073F6
:105858003B613B685B693A6913433B613B689B6901
:105868003A6913433B617B683A695A607B68FA6816
:105878009A613B685A687B685A637B687A691A62DE
:1058880000BF1C37BD465DF8047B7047000001402F
:105898000004014080B487B000AF786039607B684D
:1058A8001B6A23F010027B681A627B681B6A7B61A3
:1058B8007B685B683B617B689B69FB60FB6823F4E2
:1058C800E043FB60FB6823F44073FB603B681B68A4
:1058D8001B02FA681343FB607B6923F020037B619A
:1058E8003B689B681B017A6913437B617B68224A8A
:1058F800934203D07B68214A93420DD17B6923F000
:1059080080037B613B68DB681B017A6913437B6119
:105918007B6923F040037B617B68174A934203D07D
:105928007B68164A934213D13B6923F480633B6139
:105938003B6923F400633B613B685B699B003A6900
:1059480013433B613B689B699B003A6913433B6186
:105958007B683A695A607B68FA689A613B685A685A
:105968007B689A637B687A691A6200BF1C37BD46F8
:105978005DF8047B704700BF00000140000401404F
:1059880080B487B000AF786039607B681B6A23F405
:1059980080727B681A627B681B6A7B617B685B68C4
:1059A8003B617B68DB69FB60FB6823F07003FB608D
:1059B800FB6823F00303FB603B681B68FA6813432A
:1059C800FB607B6923F400737B613B689B681B0267
:1059D8007A6913437B617B68214A934203D07B68D1
:1059E800204A93420DD17B6923F400637B613B68B5
:1059F800DB681B027A6913437B617B6923F480634C
:105A08007B617B68164A934203D07B68154A9342B0
:105A180013D13B6923F480533B613B6923F4005362
:105A28003B613B685B691B013A6913433B613B6817
:105A38009B691B013A6913433B617B683A695A6069
:105A48007B68FA68DA613B685A687B68DA637B6866
:105A58007A691A6200BF1C37BD465DF8047B70473F
:105A6800000001400004014080B487B000AF7860B6
:105A780039607B681B6A23F480527B681A627B68F2
:105A88001B6A3B617B685B687B617B68DB69FB60E9
:105A9800FB6823F4E043FB60FB6823F44073FB607E
:105AA8003B681B681B02FA681343FB603B6923F4DD
:105AB80000533B613B689B681B033A6913433B6196
:105AC8007B68124A934203D07B68114A934209D1FA
